:200000000C9469000C94FB060C94D4060C9491000C9491000C9491000C9491000C949100C7
:200020000C9491000C9491000C9491000C9422070C9491000C9491000C9491000C949100A0
:200040000C948A060C9491000C9458060C9432060C9491000C9491000C9491000C949100A5
:200060000C9491000C949100000001000800400000010004050D000000002300260029004C
:2000800000000000240027002A0000000000250028002B000404040404040404020202024B
:2000A0000202030303030303010204081020408001020408102001020408102000000008A5
:2000C00000020100000304070000000000000000700811241FBECFEFD8E0DEBFCDBF11E0F5
:2000E000A0E0B1E0EAECF3E102C005900D92AC38B107D9F723E0ACE8B1E001C01D92A9336F
:20010000B207E1F710E0C9E6D0E004C02197FE010E94CF09C836D107C9F70E94EC080C943E
:20012000E3090C940000AF92BF92CF92DF92EF92FF920F931F93CF93DF936C017B018B0120
:20014000040F151FEB015E01AE18BF08C017D10759F06991D601ED91FC910190F081E02D9D
:20016000C6010995892B79F7C501DF91CF911F910F91FF90EF90DF90CF90BF90AF90089509
:20018000FC01538D448D252F30E0842F90E0821B930B541710F0CF96089501970895FC0150
:2001A000918D828D981761F0A28DAE0FBF2FB11D5D968C91928D9F5F9F73928F90E00895FD
:2001C0008FEF9FEF0895FC01918D828D981731F0828DE80FF11D858D90E008958FEF9FEF3D
:2001E0000895FC01918D228D892F90E0805C9F4F821B91098F739927089588E991E00E948C
:20020000F10021E0892B09F420E0822F089580E090E0892B29F00E94FD0081110C9400007F
:200220000895FC01A48DA80FB92FB11DA35ABF4F2C91848D90E001968F739927848FA689A2
:20024000B7892C93A089B1898C91837080648C93938D848D981306C00288F389E02D808173
:200260008F7D80830895EF92FF920F931F93CF93DF93EC0181E0888F9B8D8C8D98131AC06D
:20028000E889F989808185FF15C09FB7F894EE89FF896083E889F98980818370806480837F
:2002A0009FBF81E090E0DF91CF911F910F91FF90EF900895F62E0B8D10E00F5F1F4F0F733A
:2002C0001127E02E8C8D8E110CC00FB607FCFACFE889F989808185FFF5CFCE010E94110104
:2002E000F1CFEB8DEC0FFD2FF11DE35AFF4FF0829FB7F8940B8FEA89FB8980818062CFCFA0
:20030000CF93DF93EC01888D8823B9F0AA89BB89E889F9898C9185FD03C0808186FD0DC096
:200320000FB607FCF7CF8C9185FFF2CF808185FFEDCFCE010E941101E9CFDF91CF910895E4
:20034000833081F028F4813099F08230A9F008958730A9F08830C9F08430B1F48091800090
:200360008F7D03C0809180008F7780938000089584B58F7784BD089584B58F7DFBCF8091AA
:20038000B0008F778093B00008958091B0008F7DF9CF1F93CF93DF93282F30E0F901E45493
:2003A000FF4F8491F901E855FF4FD491F901EC56FF4FC491CC23A9F0162F81110E94A0016F
:2003C000EC2FF0E0EE0FFF1FE657FF4FA591B4918FB7F894EC91111108C0D095DE23DC9303
:2003E0008FBFDF91CF911F910895DE2BF8CFCF93DF9390E0FC01E855FF4F24918C569F4F71
:20040000FC0184918823D1F090E0880F991FFC01E058FF4FA591B491FC01E657FF4FC591C3
:20042000D49161110EC09FB7F8948C91E22FE0958E238C932881E223E8839FBFDF91CF917B
:2004400008958FB7F894EC91E22BEC938FBFF6CF08958CE30895CF93DF93FC012281338140
:200460002230310569F0EC01638D818D0E94C90160E0888D0E94C90182E090E09B838A8386
:20048000DF91CF91089581E008959FB7F89480918C01882319F0815080938C0180918C01AE
:2004A000811103C08CB58F7B8CBD9FBF0895CF93FC01268137812115310509F46AC02130B6
:2004C000310509F462C02230310509F460C02330310509F05EC02CE09CB5937F922B9CBDFD
:2004E00084819581019709F056C08CB580628CBD8281938101978430910508F04FC0845FEB
:200500009E4FFC0190818CB58C7F292F2370822B8CBD8DB592FB992790F98E7F892B8DBD90
:20052000CFB7F89480918C01811127C0EEE9F0E08491E2EBF0E09491E82FF0E0EE0FFF1F12
:20054000E058FF4FA591B491EC91E92321F461E08AE00E94C90161E08AE00E94F7018CB55F
:2005600080618CBD8CB580648CBD61E08DE00E94F70161E08BE00E94F70180918C018F5FC9
:2005800080938C01CFBFCF91089524E0A5CF28E0A3CF20E0A1CF8CB58F7DA9CF91E0B3CF16
:2005A0008CB58F778CBD08958CB580688CBD08956EBD00000DB407FEFDCF8EB50895FC0165
:2005C000738362830895FC01778366830895FC01758364830895089580E00895FC01818510
:2005E0000895FC0180850895FC0187810895FC01868108954095FC0125854223642B658720
:200600000895FC0164870895FC0163870895FC0162870895FC0164830895FC0165830895AE
:20062000CF92DF92EF92FF920F931F932FB7F894C0909401D0909501E0909601F090970116
:200640002FBFAB0170E060E0EFB7F89400919401109195012091960130919701EFBF0C196D
:200660001D092E093F09041715072607370770F4FC01228133812330310531F381E01F91BD
:200680000F91FF90EF90DF90CF90089580E0F7CFFC012281338123303105D1F381E008957C
:2006A0008F929F92AF92BF92CF92DF92EF92FF92CF93DF93EC018FB7F8948090940190901A
:2006C0009501A0909601B09097018FBF6B01F12CE12C2FB7F8948091940190919501A09101
:2006E0009601B09197012FBF88199909AA09BB098C159D05AE05BF05A0F4E881F98102802F
:20070000F381E02DCE010995882319F3DF91CF91FF90EF90DF90CF90BF90AF909F908F90AC
:20072000089580E0F3CFCF93DF93EC01E881F9810280F381E02DCE0109958823B9F3DF911F
:20074000CF910895862720E1829FB00111248627482F50E0292F382FCA0164E0959587957F
:200760006A95E1F728273927CA0173E0880F991F7A95E1F78227932708957F928F929F923C
:20078000AF92BF92CF92DF92EF92FF920F931F93CF93DF934D3308F025C1042F5B01EC01E1
:2007A0007C0125E7E20EF11C17E0140FE881F9810484F585E02D0995612F8FEF9FEF0E94CB
:2007C000A203E12FF0E064E0F595E7956A95E1F7E05FFE4F2081F7012083DE01AA58BF4FBC
:2007E0001F70E12FF0E0E05FFE4F20812C931A85612F0E94A203DE01A958BF4FE12FF0E05A
:2008000074E0F595E7957A95E1F7E05FFE4F20812C9311961F70E12FF0E0E05FFE4F208168
:200820002C931B85612F0E94A203DE01A758BF4FE12FF0E024E0F595E7952A95E1F7E05FD6
:20084000FE4F20812C9311961F70E12FF0E0E05FFE4F20812C931C85612F0E94A203DE0192
:20086000A558BF4FE12FF0E034E0F595E7953A95E1F7E05FFE4F20812C9311961F70E12F9A
:20088000F0E0E05FFE4F20812C931D85612F0E94A203DE01A358BF4FE12FF0E044E0F595AD
:2008A000E7954A95E1F7E05FFE4F20812C9311961F70E12FF0E0E05FFE4F20812C936501B1
:2008C000470110E0A00EB11EF2E08F0E911CCA14DB04E9F0F60171906F01672D0E94A2036E
:2008E000E72DF0E054E0F595E7955A95E1F7E05FFE4F2081F4012087F6013197E081EF70CB
:20090000F0E0E05FFE4F2081F4012187DDCF98012B5F3F4F220F331F80959095D701A20F9A
:20092000B31FFC0154E0F695E7955A95E1F7EF70FF27E05FFE4F30813C93F801EE0FFF1F41
:20094000BF016E0D7F1DAC014F705527405F5E4FFA013081FB0133870A5F1F4F000F111F14
:200960000E0D1F1DFC01EF2FFF27E295EF70E05FFE4F3081F8013083E92FFF27EF70FF275D
:20098000E05FFE4F808113968C93FE01E550FF4F245F20838A819B81039789F0E159F109EC
:2009A000108231961082319610826B8D81E06827898D0E94C90183E090E09B838A83D09328
:2009C0008E01C0938D0181E0DF91CF911F910F91FF90EF90DF90CF90BF90AF909F908F906E
:2009E0007F90089580E0F0CFEF92FF921F93CF93DF93FC01228133812330310509F452C0A8
:200A0000EC0182819381049761F0638D818D0E94C90160E0888D0E94C90184E090E09B83C9
:200A20008A838C8D8823E9F010E08FEF9FEF7E01F9E6EF0EF11CF7012081121740F4FE01B3
:200A4000E10FF11D65A10E94A2031F5FF4CF883B904F71F08F8598890196988B8F871D8E57
:200A60001C8E8D8DDF91CF911F91FF90EF9008958EA18E838FA18F8388A5888789A589878B
:200A80008D81811107C09E818C81981719F08E818F3F31F789899A8901969A8B898B81E0A0
:200AA0008D8FDECF80E0DECFFC0101900020E9F73197AF01481B590BBC0188E991E00C9454
:200AC00093000E94D509DF92EF92FF920F931F93CF93DF93EC017B018A01E881F9810280FF
:200AE000F381E02D0995D82E8823D1F0E114F104B1F00115110599F0FE01E759FF4F808197
:200B00008750F8019081891708F48083F801408150E0BE01665D7F4FC7010E94DA091D8E23
:200B20008D2DDF91CF911F910F91FF90EF90DF9008954F925F926F927F92AF92BF92CF92EA
:200B4000DF92EF92FF921F93CF93DF9300D0CDB7DEB77C0190938E0180938D0161E0FC0195
:200B6000808D0E94F70160E0F70187890E94F70161E0F701818D0E94F701C7010E942B0274
:200B8000F701C588D688C114D10409F444C0F12CE12C83E0CC0CDD1CEE1CFF1C8A95D1F79D
:200BA0009AE6A92E90E0B92E11E0412C24E2522E24EF622E712C42E050E0B501CE010196F5
:200BC0000E94A40929813A8150E040E0C301B2010E94AD09CA01B901A70196010E94AD0926
:200BE000DA01C9010297A109B1098D3F9F4FA105B10510F11F5F62E0A60EB11C1730D9F6E5
:200C0000223031054105510530F02115310581E04807510598F081E00F900F90DF91CF9127
:200C20001F91FF90EF90DF90CF90BF90AF907F906F905F904F900895163069F3109280005D
:200C400088E08093810080918100182B10938100309389002093880080916F0082608093A3
:200C60006F00D9CF1F920F920FB60F9211242F933F934F935F936F937F938F939F93AF935E
:200C8000BF93EF93FF9388E991E00E941101FF91EF91BF91AF919F918F917F916F915F9168
:200CA0004F913F912F910F900FBE0F901F9018951F920F920FB60F9211242F938F939F935A
:200CC000EF93FF93E091A801F091A9018081E091AE01F091AF0182FD1BC090818091B1013B
:200CE0008F5F8F732091B201821741F0E091B101F0E0E856FE4F958F8093B101FF91EF915F
:200D00009F918F912F910F900FBE0F901F9018958081F4CF1F920F920FB60F9211242F93E9
:200D20003F938F939F93AF93BF938091940190919501A0919601B09197013091930123E0A3
:200D4000230F2D3758F50196A11DB11D209393018093940190939501A0939601B093970140
:200D600080918F0190919001A0919101B09192010196A11DB11D80938F0190939001A093DC
:200D80009101B0939201BF91AF919F918F913F912F910F900FBE0F901F90189526E8230FD4
:200DA0000296A11DB11DD2CF1F920F920FB60F9211242F933F934F935F936F937F938F93E3
:200DC0009F93AF93BF93EF93FF93E0910201F09103010995FF91EF91BF91AF919F918F91B2
:200DE0007F916F915F914F913F912F910F900FBE0F901F9018951F920F920FB60F9211242F
:200E00002F933F934F935F936F937F938F939F93AF93BF93EF93FF93E0910001F091010165
:200E20000995FF91EF91BF91AF919F918F917F916F915F914F913F912F910F900FBE0F90A9
:200E40001F9018951F920F920FB60F921124CF92DF92EF92FF920F931F932F933F934F939B
:200E60005F936F937F938F939F93AF93BF93CF93DF93EF93FF93C0918D01D0918E018A81C2
:200E80009B81049709F0E1C02F8930E0F901E454FF4F8491F901E855FF4F0491F901EC564E
:200EA000FF4F1491112379F081110E94A001E12FF0E0EE0FFF1FEA58FF4FA591B491EC914A
:200EC0000E2381E009F480E081702A8D982F9227821719F08F8D8F5F8F8F8E8D8917F1F194
:200EE00088A12DE1803508F42BE088A1820F88A39E8F88A1803A08F46DC08AA19BA196954F
:200F000087959BA38AA38F8D853028F08AA19BA198609BA38AA388A1805A88A31F8E89A192
:200F2000882309F486C08CA18F5F8CA38C3008F451C08AA19BA1982F9F73892F8695869582
:200F4000887028E0280F281769F0E82FF0E0E05FFE4F3081931739F08F5FF5CF88A18C5E06
:200F600088A3C7CF80E090E1899F900111248AA19BA136E0969587953A95E1F7482F9595E5
:200F8000879595958795887098E0980F891749F0E82FF0E0E05FFE4F5081451719F08F5F68
:200FA000F5CF80E0822BDE01A759BF4F9C91AE0148595F4F911127C0FA01808390819730E9
:200FC00018F090819434F8F019A28F8598890196988B8F87FF91EF91DF91CF91BF91AF9118
:200FE0009F918F917F916F915F914F913F912F911F910F91FF90EF90DF90CF900F900FBE99
:201000000F901F9018952C9191E0920F9C932C0F3D2F311DF90185A39C91DA018C919817EC
:2010200030F019A281E08C8FCE010E942B021CA2D1CF8AA19BA188339B4061F681E089A37C
:201040001CA2C759DF4F1882C5CF8A819B81039709F68E0104591F4FF801808191E0980F2A
:201060009083811113C06E01FAE6CF0ED11CD601EC91AF56BF4F8C91E81778F0CE010E9483
:201080002B028B899C8901969C8B8B8BD8018C91883008F49FCF1C929DCFEC0FFD2FF11DAF
:2010A000E359FF4F608170E07E01BBE6EB0EF11CF701808191E0980F908302C07595679563
:2010C0008A95E2F76170888D0E94C901D7018C918630E0F21C92F60180818F5F8083D6CF0D
:2010E000CF93DF93CDB7DEB728970FB6F894DEBF0FBECDBFE8E9F1E01382128288EE93E049
:20110000A0E0B0E084839583A683B78384E291E09183808385EC90E09587848784EC90E067
:201120009787868780EC90E0918B808B81EC90E0938B828B82EC90E0958B848B86EC90E08A
:20114000978B868B118E128E138E148EE5E3F2E013821282158214821782168286E391E0DF
:2011600091838083EDE3F2E0138212828FEF84838287838714861586108A1786128A118A52
:20118000148A138A8AE491E09183808380ED97E0968B858B8BE0878B8CE0808F8AE0818F97
:2011A000138E88E0E4E0F1E0DE01119601900D928A95E1F788E0FE013196AAEAB2E00190FF
:2011C0000D928A95E1F728960FB6F894DEBF0FBECDBFDF91CF910895CF93DF93CDB7DEB71A
:2011E0002D970FB6F894DEBF0FBECDBF789484B5826084BD84B5816084BD85B5826085BDC3
:2012000085B5816085BD80916E00816080936E001092810080918100826080938100809154
:201220008100816080938100809180008160809380008091B10084608093B1008091B00088
:2012400081608093B00080917A00846080937A0080917A00826080937A0080917A00816088
:2012600080937A0080917A00806880937A001092C100E091A801F091A90182E08083E09163
:20128000A401F091A5011082E091A601F091A7018FEC80831092B001E091AC01F091AD0191
:2012A00086E08083E091AA01F091AB01808180618083E091AA01F091AB0180818860808362
:2012C000E091AA01F091AB01808180688083E091AA01F091AB0180818F7D80838DE392E09E
:2012E0000E949905811108C082E791E00E9454058EE791E00E9454051CE080E0E82E80E0CC
:20130000F82E1D87AE01435F5F4FBE016F5F7F4F8DE392E00E946305882361F081E891E0E7
:201320000E945405CE0101960E9454058EE791E00E945405E114F10421F30E94FD00882328
:2013400001F30E940000DDCFFB01DC0102C005900D9241505040D8F70895A1E21A2EAA1B5F
:20136000BB1BFD010DC0AA1FBB1FEE1FFF1FA217B307E407F50720F0A21BB30BE40BF50B2A
:20138000661F771F881F991F1A9469F760957095809590959B01AC01BD01CF010895EE0F20
:2013A000FF1F0590F491E02D099481E090E0F8940C94E309FB01DC0102C001900D92415006
:2013C0005040D8F70895F894FFCF280228022A2A2A2A2A2A382C050004040D0E1315161984
:2013E0001A1C232526292A2C32340000000033019300C0008001F100CF00E30000000000B9
:20140000D802D402D00257024502E702E302DF02000000009905F4046305BD03290293037C
:201420004803100350030A03070304030103FA020D03F702F402F102EE02EC02696E697459
:20144000206661696C6564000D0A004D6573736167653A200000FFFFFFFFFFFFFFFFFFFFDB
:20146000FFFFFFFFFFFFFFFFFFFFFFFFFFFFFFFFFFFFFFFFFFFFFFFFFFFFFFFFFFFFFFFF8C
:201480000590F491E02D099481E090E0F8940C94490AF894FFCF5E00BC007701000000004C
:2014A0004E01B700E5009B011601F400080144616C6C61732054656D706572617475726592
:2014C00020494320436F6E74726F6C204C6962726172792044656D6F000D0A005265717511
:2014E000657374696E672074656D7065726174757265732E2E2E006E616E00696E66006FAE
:20150000766600444F4E450054656D706572617475726520666F72207468652064657669AB
:20152000636520312028696E6465782030292069733A2000FFFFFFFFFFFFFFFFFFFFFFFF6F
:20154000FFFFFFFFFFFFFFFFFFFFFFFFFFFFFFFFFFFFFFFFFFFFFFFFFFFFFFFFFFFFFFFFAB
:20156000FFFFFFFFFFFFFFFFFFFFFFFFFFFFFFFFFFFFFFFFFFFFFFFFFFFFFFFFFFFFFFFF8B
:20158000242B252B21F408950A2609F4A140A6958FEF811D811D089597F99F6780E870E00C
:2015A00060E008959FEF80EC089500240A941616170618060906089500240A9412161306DF
:2015C000140605060895092E0394000C11F4882352F0BB0F40F4BF2B11F460FF04C06F5F9F
:2015E0007F4F8F4F9F4F089557FD9058440F551F59F05F3F71F04795880F97FB991F61F05B
:201600009F3F79F087950895121613061406551FF2CF4695F1DF08C0161617061806991FA8
:20162000F1CF86957105610508940895E894BB2766277727CB0197F908950E94A80A08F4E8
:201640008FEF08950E94350B0C94E30A0E94D50A38F00E94DC0A20F0952311F00C94CC0A90
:201660000C94D20A11240C94170B0E94F40A70F3959FC1F3950F50E0551F629FF001729FC1
:20168000BB27F00DB11D639FAA27F00DB11DAA1F649F6627B00DA11D661F829F2227B00D7F
:2016A000A11D621F739FB00DA11D621F839FA00D611D221F749F3327A00D611D231F849F52
:2016C000600D211D822F762F6A2F11249F5750409AF0F1F088234AF0EE0FFF1FBB1F661FEB
:2016E000771F881F91505040A9F79E3F510580F00C94CC0A0C94170B5F3FE4F3983ED4F3AF
:20170000869577956795B795F795E7959F5FC1F7FE2B880F911D9695879597F908950E9418
:20172000A80A880B990B089597FB072E16F4009407D077FD09D00E94CA0B07FC05D03EF419
:20174000909581959F4F0895709561957F4F0895A1E21A2EAA1BBB1BFD010DC0AA1FBB1F89
:20176000EE1FFF1FA217B307E407F50720F0A21BB30BE40BF50B661F771F881F991F1A9442
:2017800069F760957095809590959B01AC01BD01CF010895AA1BBB1B51E107C0AA1FBB1F0A
:2017A000A617B70710F0A61BB70B881F991F5A95A9F780959095BC01CD010895EE0FFF1FC0
:2017C0000590F491E02D099481E090E0F8940C94E90BF894FFCF5E00BC0077010000000068
:2017E000DF01480176012C02A701850199016E616E00696E66006F76660044616C6C61733D
:201800002054656D706572617475726520494320436F6E74726F6C204C6962726172792058
:2018200044656D6F000D0A0052657175657374696E672074656D7065726174757265732E76
:201840002E2E00444F4E450054656D706572617475726520666F72207468652064657669E8
:20186000636520312028696E6465782030292069733A20004572726F72207369676E616C78
:201880002077696C6C2062652000FFFFFFFFFFFFFFFFFFFFFFFFFFFFFFFFFFFFFFFFFFFF7F
:2018A000FFFFFFFFFFFFFFFFFFFFFFFFFFFFFFFFFFFFFFFFFFFFFFFFFFFFFFFFFFFFFFFF48
:2018C000FFFFFFFFFFFFFFFFFFFFFFFFFFFFFFFFFFFFFFFFFFFFFFFFFFFFFFFFFFFFFFFF28
:2018E000FFFFFFFFFFFFFFFFFFFFFFFFFFFFFFFFFFFFFFFFFFFFFFFFFFFFFFFFFFFFFFFF08
:20190000FFFFFFFFFFFFFFFFFFFFFFFFFFFFFFFFFFFFFFFFFFFFFFFFFFFFFFFFFFFFFFFFE7
:207E0000112484B714BE81FFF0D085E08093810082E08093C00088E18093C10086E08093FC
:207E2000C20080E18093C4008EE0C9D0259A86E020E33CEF91E0309385002093840096BBAD
:207E4000B09BFECF1D9AA8958150A9F7CC24DD2488248394B5E0AB2EA1E19A2EF3E0BF2E79
:207E6000A2D0813461F49FD0082FAFD0023811F0013811F484E001C083E08DD089C0823404
:207E800011F484E103C0853419F485E0A6D080C0853579F488D0E82EFF2485D0082F10E0A0
:207EA000102F00270E291F29000F111F8ED068016FC0863521F484E090D080E0DECF84364D
:207EC00009F040C070D06FD0082F6DD080E0C81680E7D80618F4F601B7BEE895C0E0D1E0ED
:207EE00062D089930C17E1F7F0E0CF16F0E7DF0618F0F601B7BEE89568D007B600FCFDCF1A
:207F0000A601A0E0B1E02C9130E011968C91119790E0982F8827822B932B1296FA010C016F
:207F200087BEE89511244E5F5F4FF1E0A038BF0751F7F601A7BEE89507B600FCFDCF97BE85
:207F4000E89526C08437B1F42ED02DD0F82E2BD03CD0F601EF2C8F010F5F1F4F84911BD0B8
:207F6000EA94F801C1F70894C11CD11CFA94CF0CD11C0EC0853739F428D08EE10CD085E9AE
:207F80000AD08FE07ACF813511F488E018D01DD080E101D065CF982F8091C00085FFFCCF0A
:207FA0009093C60008958091C00087FFFCCF8091C00084FD01C0A8958091C6000895E0E68F
:207FC000F0E098E1908380830895EDDF803219F088E0F5DFFFCF84E1DECF1F93182FE3DF47
:207FE0001150E9F7F2DF1F91089580E0E8DFEE27FF270994FFFFFFFFFFFFFFFFFFFF040425
:00000001FF
